:020000040800F2
:10000000780900206902000859050008A7030008C4
:1000100055050008110300082F0800080000000023
:100020000000000000000000000000007D05000846
:1000300015030008000000005B050008DD0600084D
:10004000830200088302000883020008830200087C
:10005000830200088302000883020008830200086C
:10006000830200088302000883020008830200085C
:10007000830200088302000883020008830200084C
:10008000830200088302000883020008830200083C
:10009000830200088302000883020008830200082C
:1000A000830200088302000883020008830200081C
:1000B000830200088302000883020008830200080C
:1000C00083020008830200088302000883020008FC
:1000D0008302000849070008830200088302000821
:1000E00083020008830200088302000883020008DC
:1000F00083020008830200088302000883020008CC
:1001000083020008830200088302000883020008BB
:1001100083020008830200088302000883020008AB
:10012000830200088302000883020008830200089B
:10013000830200088302000883020008830200088B
:10014000830200088302000883020008830200087B
:10015000830200088302000883020008830200086B
:10016000830200088302000883020008830200085B
:10017000830200088302000883020008830200084B
:10018000830200088302000800F002F800F05CF827
:100190000AA090E8000C82448344AAF10107DA45E2
:1001A00001D100F051F8AFF2090EBAE80F0013F0D8
:1001B000010F18BFFB1A43F00103184700080000A5
:1001C000200800000A444FF0000C10F8013B13F027
:1001D000070408BF10F8014B1D1108BF10F8015BA0
:1001E000641E05D010F8016B641E01F8016BF9D193
:1001F00013F0080F1EBF10F8014BAD1C0C1B09D1EA
:100200006D1E58BF01F801CBFAD505E014F8016B5B
:1002100001F8016B6D1EF9D59142D6D370470000ED
:100220000023002400250026103A28BF78C1FBD8FF
:10023000520728BF30C148BF0B6070471FB500F0A0
:10024000B7FB1FBD10B510BD00F033F81146FFF726
:10025000F5FF00F077FB00F051F803B4FFF7F2FF71
:1002600003BC00F0E6FA000009488047094800474F
:10027000FEE7FEE7FEE7FEE7FEE7FEE7FEE7FEE756
:10028000FEE7FEE704480549054A064B70470000B3
:10029000E1060008890100087803002078090020A1
:1002A0007805002078050020704770477047704738
:1002B0007047754600F028F8AE460500694653467B
:1002C00020F00700854618B020B5FFF7DBFFBDE83A
:1002D00020404FF000064FF000074FF000084FF0AD
:1002E000000B21F00701AC46ACE8C009ACE8C0093E
:1002F000ACE8C009ACE8C0098D4670470446AFF3CE
:1003000000802046FFF7A9FF004870471403002033
:1003100000BFFEE77047F0B50A4600210023002425
:1003200000BF3DE0012505FA01F3156805EA030465
:100330009C4234D105684F000326BE40B54305609A
:1003400015794E00B5400668354305601579012DD5
:1003500002D01579022D16D185684F000326BE40C4
:10036000B543856055794E00B54086683543856054
:10037000456801268E40B5434560456896798E40B4
:10038000B6B235434560C5684F000326BE40B5434D
:10039000C560D5794E00B540C6683543C560491C77
:1003A0001029BFD3F0BD00BFFEE710B5012000F05B
:1003B000AFF8022000F05EFA10BD2DE9F0410446CE
:1003C000342000F0A5F8342000F0A2F8002521E048
:1003D00000271BE0002615E007F18001C8B200F0FD
:1003E00097F806F1800101EBC501C8B200F090F862
:1003F00014F8010B00F09DF814F8010B00F099F8C7
:10040000701CC6B2082EE7DB781CC7B2202FE1DBD8
:10041000681CC5B2022DDBDB362000F079F83020F5
:1004200000F076F8BDE8F08170B505460E4614463A
:10043000074901EBC501885D00F06AF803E0207808
:1004400000F077F8641C20780028F8DC70BD00000C
:10045000200200201CB50121602000F07FF84FF43D
:100460004040009001208DF8040000208DF8060027
:1004700003208DF8050001208DF8070069460F481C
:10048000FFF749FF0220009001208DF804000020B2
:100490008DF8060003208DF8050001208DF8070077
:1004A00069460748FFF737FF0120064908600649FB
:1004B000C1F8BC02054908601CBD000000140240E0
:1004C000001802408402434200804242B882424205
:1004D00010B5322000F0CEF9302000F019F80120DC
:1004E00000F0C8F9302000F013F8012000F0C2F944
:1004F0000C2000F00DF8012000F0BCF9012000F004
:1005000007F81E2000F0B6F9062000F001F810BD33
:1005100010B50446012000F0ADF9F82000F030F8E5
:1005200004F0F00000F02CF82107080E00F028F885
:1005300010BD10B50446012000F09CF9FA2000F02F
:100540001FF804F0F00000F01BF82107080E00F07F
:1005500017F810BD00BFFEE77047704729B1064A83
:1005600012680243044B1A6004E0034A1268824393
:10057000014B1A607047000030380240704700009D
:1005800070B50546002418E005FA04F000F080007C
:1005900018B101200A49086002E0002008490860FB
:1005A00000200749091F0860052000F07FF901209D
:1005B0000449C1F8B802601CC4B2082CE4DB70BD69
:1005C000BC824242008042420CB500200190009063
:1005D0003448006840F480303249086000BF314838
:1005E000006800F4003000900198401C01900098D1
:1005F00018B90198B0F5A04FF1D12A48006800F46D
:10060000003010B10120009001E00020009000981F
:10061000012846D123484030006840F080502149ED
:10062000403108602048006840F440401E4908609E
:100630001C48083000681B490831086008460068FB
:1006400040F4004008600846006840F4A05008608C
:100650001648091F0860081F006840F08070091FD5
:10066000086000BF0F48006800F000700028F9D053
:1006700040F205700E4908600A480830006820F012
:1006800003000849083108600846006840F002008D
:10069000086000BF03480830006800F00C0008281C
:1006A000F8D10CBD003802400070004008544007EB
:1006B000003C0240042808D14FF0E021096941F0D4
:1006C00004014FF0E022116107E04FF0E0210969D9
:1006D00021F004014FF0E0221161704770470000E3
:1006E00010B51548006840F47000134908601348BD
:1006F000006840F001001149086000200F490831EE
:1007000008600E4800680E4908400C4908600D4812
:10071000091D0860081F006820F48020091F086078
:10072000002006490C310860FFF74EFF4FF00060D3
:1007300001498039086010BD88ED00E000380240B2
:10074000FFFFF6FE1030002410B540F225511D4881
:1007500000F03EF810B31B4800F064F8C4B21A4829
:10076000008800F40040C8B91748008800F48040B1
:1007700060B10A2C03D000201349088020E0124801
:10078000008840F400401049088019E00D2C06D183
:100790000D48008840F480400B49088010E00A486A
:1007A0000088C0F30D0009490C5407480088401C1C
:1007B0000549088008460088C72801DD0020088018
:1007C00010BD000000100140480200204C02002033
:1007D00070B50246002400230025002040F66A166A
:1007E000B14200D100BFC1F3421501F01F03012641
:1007F00006FA03F3012D02D19689334006E0022D5B
:1008000002D1168A334001E0968A33400C12012649
:1008100006FA04F41688344013B10CB1012000E04C
:10082000002070BD01468888C0F30800704700BFF3
:10083000FEE7014600BF704710B504466FF00400A4
:10084000FFF738FFE11704EB5171C1F3C701074A05
:1008500011701046007800EB4001C1EBC0104FF65C
:10086000FF7101EAC0000249088010BD400200206B
:100870004202002070B504464FF4077094FBF0F07C
:10088000C6B24FF4077094FBF0F100FB114085B243
:1008900005E04FF4077000F02FF8701EC6B2002E6E
:1008A000F7D115B1284600F027F870BD0146114A6E
:1008B00012784A434FF0E0235A6100229A611A46A7
:1008C000126942F001021A6100BF4FF0E022106984
:1008D00000F001021AB100F48032002AF5D04FF086
:1008E000E022126922F001024FF0E0231A61002297
:1008F0009A617047400200200146114A12884A431B
:100900004FF0E0235A6100229A611A46126942F0C0
:1009100001021A6100BF4FF0E022106900F00102ED
:100920001AB100F48032002AF5D04FF0E0221269AB
:1009300022F001024FF0E0231A6100229A61704711
:1009400042020020A820FFF777FFFFF783FDFFF7A3
:10095000BFFD1420FFF78EFFFFF727FD0A20FFF7EA
:1009600089FF18E00CA201210846FFF75DFD0DA2EA
:1009700001210220FFF758FD41F28830FFF77AFF8E
:10098000FFF713FD0948FFF718FD41F28830FFF724
:1009900071FFFFF70AFDE5E7504231383036313458
:1009A00032360000D5D4B2B4D2A20000200000201C
:1009B0004FF04070E1EE100A70470000DC090008BB
:1009C000000000204C020000C40100087C0B00085D
:1009D0004C0200202C07000020020008002111809A
:1009E0008182838485868790919293949596978847
:1009F000898A8B8C8D8E8F98999A9B9C9D9E9F52F5
:100A00001E8307F0437F8023180C42013B01FF1037
:100A1000322015131003FE4403FFC0325840093F33
:100A2000301FFFC003FFE0148C03F028087FE07C38
:100A300001E003FF4A15013606C03F5FC0FFFC60BE
:100A4000011015021B0F8016FF01FE0F303AEF1048
:100A50001A6D89163E03FFF19033FFF81C0436FE31
:100A60006A1507FFFC901BEFFF721C04DB7E6A1502
:100A700087FFFCD01B0FFF7214046DFC2F07FF8F44
:100A8000FFFE50101AE0303BFC10105A90101B1B58
:100A9000F8102DCFFFFE801012F02B040F101CFF5A
:100AA000FFFADA39106B07F010190612F82D02035D
:100AB000F0201022BA3DFDFFFFFC102603FFFFDFF0
:100AC000B815C1C03FFC1D0101E0402A23DFB01D65
:100AD00081C03FCE0613E0801D7FFFDFA00A248087
:100AE0001DCF2341E11C3FFF9BEA1683801FC78077
:100AF0002321E21C1FFDB61012C3140EE6801B1941
:100B0000EC7A33FE2012C3140767401A07F643033A
:100B10003E12021B03E747290A428E120663038333
:100B20004B02031013070340087746742480060421
:100B30001A1C1211665545545780121C220E774517
:100B400045745780082A1C201C4474806351223845
:100B50005D7776475430519210C021808182838422
:100B6000858687909192939495969788898A8B8CA5
:0C0B70008D8E8F98999A9B9C9D9E9F00F3
:040000050800018965
:00000001FF
