:020000040800F2
:1000000040070020290200082D040008B103000861
:1000100029040008D102000883090008000000003C
:10002000000000000000000000000000890400083B
:10003000D50200080000000045040008A1050008E2
:10004000430200084302000843020008430200087C
:10005000430200084302000843020008430200086C
:10006000430200084302000843020008430200085C
:10007000430200084302000843020008430200084C
:10008000430200084302000843020008430200083C
:10009000430200084302000843020008430200082C
:1000A000430200084302000843020008430200081C
:1000B00043020008A90600084302000843020008A2
:1000C00043020008430200084302000843020008FC
:1000D000430200089D08000843020008430200088C
:1000E00043020008430200084302000843020008DC
:1000F00043020008430200084302000843020008CC
:1001000043020008430200084302000843020008BB
:1001100043020008430200084302000843020008AB
:10012000430200084302000843020008430200089B
:10013000430200084302000843020008430200088B
:10014000430200084302000843020008430200087B
:10015000430200084302000843020008430200086B
:10016000430200084302000843020008430200085B
:10017000430200084302000843020008430200084B
:10018000430200084302000800F002F800F03CF8C7
:100190000AA090E8000C82448344AAF10107DA45E2
:1001A00001D100F031F8AFF2090EBAE80F0013F0F8
:1001B000010F18BFFB1A43F001031847280900007C
:1001C00048090000103A24BF78C878C1FAD852070D
:1001D00024BF30C830C144BF04680C6070470000C1
:1001E0000023002400250026103A28BF78C1FBD840
:1001F000520728BF30C148BF0B6070471FB500F0E1
:100200006BFC1FBD10B510BD00F033F81146FFF7B1
:10021000F5FF00F01BFC00F051F803B4FFF7F2FF0C
:1002200003BC00F0B0FB00000948804709480047C4
:10023000FEE7FEE7FEE7FEE7FEE7FEE7FEE7FEE796
:10024000FEE7FEE704480549054A064B70470000F3
:10025000A505000889010008400100204007002092
:1002600040030020400300207047704770477047EC
:100270007047754600F028F8AE46050069465346BB
:1002800020F00700854618B020B5FFF7DBFFBDE87A
:1002900020404FF000064FF000074FF000084FF0ED
:1002A000000B21F00701AC46ACE8C009ACE8C0097E
:1002B000ACE8C009ACE8C0098D4670470446AFF30E
:1002C00000802046FFF7A9FF00487047DC000020AF
:1002D00000BFFEE77047F0B50A4600210023002466
:1002E00000BF3DE0012505FA01F3156805EA0304A6
:1002F0009C4234D105684F000326BE40B5430560DB
:1003000015794E00B5400668354305601579012D15
:1003100002D01579022D16D185684F000326BE4004
:10032000B543856055794E00B54086683543856094
:10033000456801268E40B5434560456896798E40F4
:10034000B6B235434560C5684F000326BE40B5438D
:10035000C560D5794E00B540C6683543C560491CB7
:100360001029BFD3F0BDF0B5002300244D07ED0EDA
:1003700002FA05F3CE1000F1200555F826504E077D
:10038000F70E0F26BE40B543CF1000F1200646F809
:100390002750CE1000F1200555F8265045EA0304F9
:1003A000CE1000F1200545F82640F0BD418370478E
:1003B00000BFFEE71CB50121482000F045F840F6DB
:1003C0000C60009001208DF8040000208DF80600DC
:1003D00003208DF8050001208DF8070069461048BC
:1003E000FFF779FF40F68C610D48FFF7DFFF4FF410
:1003F0004250009001208DF8040000208DF8060086
:1004000003208DF8050001208DF807006946054896
:10041000FFF761FF4FF442510248FFF7C7FF1CBDD1
:1004200000180240000C024000BFFEE770470000C9
:1004300002490143024A1160704700000000FA05BA
:100440000CED00E07047000029B1064A1268024333
:10045000044B1A6004E0034A12688243014B1A609D
:10046000704700003038024029B1064A1268024342
:10047000044B1A6004E0034A12688243014B1A607D
:100480007047000040380240704700000CB5002063
:10049000019000903448006840F480303249086090
:1004A00000BF3148006800F4003000900198401C03
:1004B0000190009818B90198B0F5A04FF1D12A48E1
:1004C000006800F4003010B10120009001E000202D
:1004D00000900098012846D123484030006840F041
:1004E00080502149403108602048006840F4404075
:1004F0001E4908601C48083000681B490831086024
:100500000846006840F4004008600846006840F46F
:10051000A05008601648091F0860081F006840F0D6
:100520008070091F086000BF0F48006800F000706D
:100530000028F9D040F205700E4908600A480830DA
:10054000006820F003000849083108600846006888
:1005500040F00200086000BF03480830006800F067
:100560000C000828F8D10CBD003802400070004093
:1005700008544007003C0240042808D14FF0E02115
:10058000096941F004014FF0E022116107E04FF0EA
:10059000E021096921F004014FF0E0221161704768
:1005A0007047000010B51548006840F4700013490A
:1005B00008601348006840F00100114908600020FD
:1005C0000F49083108600E4800680E4908400C4980
:1005D00008600D48091D0860081F006820F480208D
:1005E000091F0860002006490C310860FFF74EFF24
:1005F0004FF0006001498039086010BD88ED00E0CF
:1006000000380240FFFFF6FE1030002430B58BB0FA
:1006100004460D4601210846FFF726FF012102206E
:10062000FFF712FF01220A211E48FFF79CFE4FF43C
:100630008060099002208DF8280003208DF82900A1
:1006400001208DF82B0009A91648FFF744FEA8B237
:10065000ADF818000020ADF81A000794ADF820009E
:1006600006A94FF0804000F0D7F86020ADF80400F4
:100670000120ADF806000020ADF8100001A94FF0F0
:10068000804000F06DF80821C80600F0B9F801219B
:10069000880700F039F80121880700F044F80BB012
:1006A00030BD00000004024010B50121134800F0E5
:1006B00046F8E8B11248006808B9012000E00020BF
:1006C0000F4908600F480078401C0E490870084622
:1006D00000780A280CD10A48001D006808B90120DA
:1006E00000E000200649091D086000200549087047
:1006F0000121024800F014F810BD00000004004081
:10070000A80243421200002021B1028842F0800278
:10071000028004E002884FF67F731A40028070471F
:10072000CA430282704721B1028842F0010202806E
:1007300004E002884FF6FE731A400280704730B51D
:100740000246002000230024158A05EA010395894A
:1007500005EA010413B10CB1012000E0002030BD16
:1007600070B5002400220023058C4FF6FF6635404B
:100770000584028C8388848B4FF68F752C404FF64E
:10078000FC752C400D882C434FF6FF552A408D896F
:100790004FF6FF7606EA05252A434D8806EA052529
:1007A0002A43154DA84202D0144DA8421DD14FF244
:1007B000FF752A40CD894FF6FF7606EA05252A43C4
:1007C0004FF6FF352A408D8806EA05252A434EF666
:1007D000FF752B404DF6FF752B400D8A06EA051577
:1007E0002B434D8A06EA05152B43838084838D684D
:1007F000C563028470BD0000000001400004014098
:100800000A460021818B4FF6F7731940114381830B
:100810007047C1637047000000220288184B98425D
:100820000ED0184B98420BD0B0F1804F08D0164B29
:10083000984205D0154B984202D0154B984204D1EE
:100840004FF68F731A404B881A43124B984207D0C9
:10085000114B984204D04FF6FF431A400B891A43BC
:1008600002804B68C3620B880385054B984202D017
:10087000044B984201D18B7A03860123838270470F
:100880000000014000040140000400400008004056
:10089000000C0040001000400014004010B540F271
:1008A00025511D4800F03EF810B31B4800F064F8D5
:1008B000C4B21A48008800F40040C8B9174800883C
:1008C00000F4804060B10A2C03D000201349088056
:1008D00020E01248008840F400401049088019E0E8
:1008E0000D2C06D10D48008840F480400B4908804B
:1008F00010E00A480088C0F30D0009490C5407486D
:100900000088401C0549088008460088C72801DD8A
:100910000020088010BD00000010014010000020E1
:100920001400002070B5024600240023002500209A
:1009300040F66A16B14200D100BFC1F3421501F082
:100940001F03012606FA03F3012D02D196893340D5
:1009500006E0022D02D1168A334001E0968A334028
:100960000C12012606FA04F41688344013B10CB1B7
:10097000012000E0002070BD01468888C0F3080017
:10098000704700BFFEE7014600BF704710B5044640
:100990006FF00400FFF7F0FDE11704EB5171C1F3B4
:1009A000C701074A11701046007800EB4001C1EB07
:1009B000C0104FF6FF7101EAC0000249088010BD67
:1009C000060000200800002070B504464FF40770B0
:1009D00094FBF0F0C6B24FF4077094FBF0F100FB0B
:1009E000114085B205E04FF4077000F009F8701E61
:1009F000C6B2002EF7D115B1284600F001F870BD3F
:100A00000146114A12884A434FF0E0235A610022FE
:100A10009A611A46126942F001021A6100BF4FF052
:100A2000E022106900F001021AB100F48032002ABD
:100A3000F5D04FF0E022126922F001024FF0E023DE
:100A40001A6100229A61704708000020A820FFF771
:100A50009DFF4FF4A060FFF7EBFC002140F6B8309B
:100A6000FFF7D4FDFFF7A6FC31E01948007828B95C
:100A70001848006832301749086008E014480078C8
:100A8000012804D11348006832381249086011481F
:100A90000068323028B900200D4908700D490860FF
:100AA0000CE00C48006840F6EA31884206D101208B
:100AB0000749087040F6B8300649086005480168E3
:100AC0004FF08040FFF7A5FE0520FFF77DFFCCE744
:100AD00004000020000000204FF04070E1EE100AFA
:100AE00070470000040B0008000000201400000004
:100AF000C4010008180B0008140000202C07000097
:100B0000E0010008000000000000000000000000FC
:080B10000000000000000000DD
:040000050800018965
:00000001FF
