:020000040800F2
:1000000038070020290200085D040008DF0300080B
:1000100059040008D10200082F0900080000000060
:100020000000000000000000000000003105000892
:100030004903000800000000ED040008490600081C
:10004000430200084302000843020008430200087C
:10005000430200084302000843020008430200086C
:10006000430200084302000843020008430200085C
:10007000430200084302000843020008430200084C
:10008000430200084302000843020008430200083C
:10009000430200084302000843020008430200082C
:1000A000430200084302000843020008430200081C
:1000B00043020008B5060008430200084302000896
:1000C00043020008430200084302000843020008FC
:1000D00043020008490800084302000843020008E0
:1000E00043020008430200084302000843020008DC
:1000F00043020008430200084302000843020008CC
:1001000043020008430200084302000843020008BB
:1001100043020008430200084302000843020008AB
:10012000430200084302000843020008430200089B
:10013000430200084302000843020008430200088B
:10014000430200084302000843020008430200087B
:10015000430200084302000843020008430200086B
:10016000430200084302000843020008430200085B
:10017000430200084302000843020008430200084B
:10018000430200084302000800F002F800F03CF8C7
:100190000AA090E8000C82448344AAF10107DA45E2
:1001A00001D100F031F8AFF2090EBAE80F0013F0F8
:1001B000010F18BFFB1A43F001031847E8070000BE
:1001C00008080000103A24BF78C878C1FAD852074E
:1001D00024BF30C830C144BF04680C6070470000C1
:1001E0000023002400250026103A28BF78C1FBD840
:1001F000520728BF30C148BF0B6070471FB500F0E1
:10020000CBFB1FBD10B510BD00F033F81146FFF752
:10021000F5FF00F0AFFB00F051F803B4FFF7F2FF79
:1002200003BC00F086FB00000948804709480047EE
:10023000FEE7FEE7FEE7FEE7FEE7FEE7FEE7FEE796
:10024000FEE7FEE704480549054A064B70470000F3
:100250004D060008890100083801002038070020F9
:1002600038030020380300207047704770477047FC
:100270007047754600F028F8AE46050069465346BB
:1002800020F00700854618B020B5FFF7DBFFBDE87A
:1002900020404FF000064FF000074FF000084FF0ED
:1002A000000B21F00701AC46ACE8C009ACE8C0097E
:1002B000ACE8C009ACE8C0098D4670470446AFF30E
:1002C00000802046FFF7A9FF00487047D4000020B7
:1002D00000BFFEE71CB50121342000F009F93020F1
:1002E000009000208DF8040003208DF80500012007
:1002F0008DF807006946114800F027F84FF4404098
:10030000009000208DF8040003208DF805000120E6
:100310008DF8070069460A4800F017F80F20009092
:1003200000208DF8040003208DF8050001208DF8D1
:1003300007006946034800F008F81CBD00100240A1
:1003400000080240001402407047F0B50A46002140
:100350000023002400BF3DE0012505FA01F31568E4
:1003600005EA03049C4234D105684F000326BE40D1
:10037000B543056015794E00B54006683543056004
:100380001579012D02D01579022D16D185684F00FF
:100390000326BE40B543856055794E00B54086685A
:1003A00035438560456801268E40B5434560456804
:1003B00096798E40B6B235434560C5684F00032636
:1003C000BE40B543C560D5794E00B540C6683543DB
:1003D000C560491C1029BFD3F0BD4183704700BFE1
:1003E000FEE700001CB50121482000F081F840F62E
:1003F0000C60009001208DF8040000208DF80600AC
:1004000003208DF8050001208DF80700694610488B
:10041000FFF79BFF40F68C610D48FFF7DEFF4FF4BE
:100420004250009001208DF8040000208DF8060055
:1004300003208DF8050001208DF807006946054866
:10044000FFF783FF4FF442510248FFF7C6FF1CBD80
:1004500000180240000C024000BFFEE77047000099
:1004600070B5002100230F22C4781CB3174C2468F8
:1004700004F4E064C4F5E064C4F30721C1F10404AA
:10048000E3B20A4144789C40E1B2847814402143AD
:100490000C07210E0E4C05786155047804F01F05F9
:1004A0000124AC4005786D11AD0005F1E025C5F8DB
:1004B000004109E0047804F01F050124AC40054D1B
:1004C0000678761145F8264070BD00000CED00E07E
:1004D00000E400E080E100E002490143024A1160CB
:1004E000704700000000FA050CED00E070470000C6
:1004F00029B1064A12680243044B1A6004E0034A19
:1005000012688243014B1A60704700003038024085
:1005100029B1064A12680243044B1A6004E0034AF8
:1005200012688243014B1A60704700004038024055
:10053000704700000CB5002001900090344800681E
:1005400040F480303249086000BF3148006800F450
:10055000003000900198401C0190009818B9019853
:10056000B0F5A04FF1D12A48006800F4003010B176
:100570000120009001E0002000900098012846D161
:1005800023484030006840F08050214940310860E5
:100590002048006840F440401E4908601C4808306C
:1005A00000681B49083108600846006840F40040B4
:1005B00008600846006840F4A05008601648091F0B
:1005C0000860081F006840F08070091F086000BFC5
:1005D0000F48006800F000700028F9D040F2057064
:1005E0000E4908600A480830006820F003000849F6
:1005F000083108600846006840F00200086000BF4B
:1006000003480830006800F00C000828F8D10CBD41
:10061000003802400070004008544007003C02408F
:10062000042808D14FF0E021096941F004014FF09E
:10063000E022116107E04FF0E021096921F0040197
:100640004FF0E022116170477047000010B5154867
:10065000006840F47000134908601348006840F0D7
:1006600001001149086000200F49083108600E4858
:1006700000680E4908400C4908600D48091D0860D3
:10068000081F006820F48020091F08600020064928
:100690000C310860FFF74EFF4FF0006001498039D0
:1006A000086010BD88ED00E000380240FFFFF6FE54
:1006B0001030002410B50121134800F068F8E8B1AB
:1006C0001248006808B9012000E000200F490860C6
:1006D0000F480078401C0E490870084600780A2828
:1006E0000CD10A48001D006808B9012000E0002074
:1006F0000649091D086000200549087001210248CB
:1007000000F036F810BD000000040040A80243428B
:100710000A0000207FB505460C4601210220FFF7A4
:10072000F7FE0295ADF804400020ADF80600ADF8E4
:100730000C0001A90D4800F045F8012211460B48B4
:1007400000F036F81D208DF8000001208DF8010022
:1007500003208DF8020001208DF803006846FFF7A2
:100760007FFE0121014800F006F87FBD0004004033
:10077000CA430282704721B1028842F0010202801E
:1007800004E002884FF6FE731A400280704730B5CD
:100790000246002000230024158A05EA01039589FA
:1007A00005EA010413B10CB1012000E0002030BDC6
:1007B0001AB183890B43838102E083898B43838150
:1007C0007047000000220288184B98420ED0184B48
:1007D00098420BD0B0F1804F08D0164B984205D00C
:1007E000154B984202D0154B984204D14FF68F73A7
:1007F0001A404B881A43124B984207D0114B98422B
:1008000004D04FF6FF431A400B891A4302804B680D
:10081000C3620B880385054B984202D0044B984273
:1008200001D18B7A03860123838270470000014047
:10083000000401400004004000080040000C00409B
:10084000001000400014004010B540F225511D4832
:1008500000F03EF810B31B4800F064F8C4B21A4828
:10086000008800F40040C8B91748008800F48040B0
:1008700060B10A2C03D000201349088020E0124800
:10088000008840F400401049088019E00D2C06D182
:100890000D48008840F480400B49088010E00A4869
:1008A0000088C0F30D0009490C5407480088401C1B
:1008B0000549088008460088C72801DD0020088017
:1008C00010BD000000100140080000200C000020B6
:1008D00070B50246002400230025002040F66A1669
:1008E000B14200D100BFC1F3421501F01F03012640
:1008F00006FA03F3012D02D19689334006E0022D5A
:1009000002D1168A334001E0968A33400C12012648
:1009100006FA04F41688344013B10CB1012000E04B
:10092000002070BD01468888C0F30800704700BFF2
:10093000FEE7014600BF704710B504466FF00400A3
:10094000FFF76EFEE11704EB5171C1F3C701074ACF
:1009500011701046007800EB4001C1EBC0104FF65B
:10096000FF7101EAC0000249088010BD00000020AC
:1009700002000020A820FFF7DFFF4FF4A060FFF780
:10098000ABFDFFF72FFDFFF7A5FC4CF24F315320D5
:10099000FFF7C0FE00BFFEE74FF04070E1EE100A27
:1009A00070470000C4090008000000200C0000008F
:1009B000C4010008D00900080C0000202C0700002A
:1009C000E00100080000000000000000000000003E
:040000050800018965
:00000001FF
