:020000040800F2
:10000000A807002029020008F50600083D050008A1
:10001000F106000859030008431000080000000022
:10002000000000000000000000000000D1080008EF
:10003000D10300080000000085070008310A00080D
:10004000430200084302000843020008430200087C
:100050004302000843020008D503000843020008D9
:10006000430200080104000843020008430200089C
:10007000430200084302000843020008430200084C
:10008000430200084302000843020008430200083C
:10009000430200084302000843020008430200082C
:1000A000430200084302000843020008430200081C
:1000B000430200089D0A0008A10B00084302000843
:1000C00043020008430200084302000843020008FC
:1000D00043020008210E0008430200084302000802
:1000E00043020008430200084302000843020008DC
:1000F00043020008430200084302000843020008CC
:1001000043020008430200084302000843020008BB
:1001100043020008430200084302000843020008AB
:10012000430200084302000843020008430200089B
:10013000430200084302000843020008430200088B
:10014000430200084302000843020008430200087B
:10015000430200084302000843020008430200086B
:10016000430200084302000843020008430200085B
:10017000430200084302000843020008430200084B
:10018000430200084302000800F002F800F03CF8C7
:100190000AA090E8000C82448344AAF10107DA45E2
:1001A00001D100F031F8AFF2090EBAE80F0013F0F8
:1001B000010F18BFFB1A43F001031847401200005B
:1001C00060120000103A24BF78C878C1FAD85207EC
:1001D00024BF30C830C144BF04680C6070470000C1
:1001E0000023002400250026103A28BF78C1FBD840
:1001F000520728BF30C148BF0B6070471FB501F0E0
:10020000F7F81FBD10B510BD00F076F81146FFF7E6
:10021000F5FF00F0A1FF00F094F803B4FFF7F2FF40
:1002200003BC00F010FF0000094880470948004760
:10023000FEE7FEE7FEE7FEE7FEE7FEE7FEE7FEE796
:10024000FEE7FEE704480549054A064B70470000F3
:10025000350A000889010008A8010020A80700202D
:10026000A8030020A8030020704740EA01030246CB
:1002700030B59B0710D14FF0013400E008C208C927
:100280001D1B9D4315EAC41FF8D013F0FF0102F8AF
:10029000011B0DD01B0AF8E711F8013B002B02F8F7
:1002A000013B05D011F8013B002B02F8013BF3D1D3
:1002B00030BD10B5431C02E010F8011B71B181077D
:1002C000FAD14FF0013202C88C1A8C4314EAC211E1
:1002D000F9D0C01A0A0603D0C01E10BDC01A10BD46
:1002E0000A0401D0801E10BD0902FCD0401E10BDC2
:1002F0007047704770477047754600F029F8AE4662
:1003000005006946534620F00700854618B020B521
:10031000FFF798FFBDE820404FF000064FF00007C0
:100320004FF000084FF0000B21F00701AC46ACE89D
:10033000C009ACE8C009ACE8C009ACE8C0098D460A
:1003400070470446AFF300802046FFF766FF0000C9
:10035000004870474401002000BFFEE71CB50121A2
:10036000342000F011FA3020009000208DF80400B5
:1003700003208DF8050001208DF80700694611481B
:1003800000F066F84FF44040009000208DF8040023
:1003900003208DF8050001208DF8070069460A4802
:1003A00000F056F80F20009000208DF80400032084
:1003B0008DF8050001208DF807006946034800F01C
:1003C00047F81CBD00100240000802400014024023
:1003D0007047000010B5012000F02EF868B16420CD
:1003E00000F052FE0548006808B9012000E0002036
:1003F00002490860012000F019F810BDAC02434228
:1004000010B5082000F018F868B1642000F03CFE38
:100410000548006808B9012000E000200249086092
:10042000082000F003F810BDB08241420149086085
:1004300070470000143C014001460020034A126846
:100440000A400AB1012000E000207047143C01403E
:10045000F0B50A4600210023002400BF3DE001253D
:1004600005FA01F3156805EA03049C4234D10568D6
:100470004F000326BE40B543056015794E00B540D8
:100480000668354305601579012D02D01579022DD6
:1004900016D185684F000326BE40B5438560557967
:1004A0004E00B540866835438560456801268E401C
:1004B000B5434560456896798E40B6B23543456090
:1004C000C5684F000326BE40B543C560D5794E00D0
:1004D000B540C6683543C560491C1029BFD3F0BD7F
:1004E000F0B5002300244D07ED0E02FA05F3CE10FF
:1004F00000F1200555F826504E07F70E0F26BE4096
:10050000B543CF1000F1200646F82750CE1000F179
:10051000200555F8265045EA0304CE1000F12005C9
:1005200045F82640F0BD0246002013690B400BB190
:10053000012000E0002070474183704700BFFEE7C4
:1005400010B5012000F0B2F8022000F09DFD10BDB2
:1005500070B505460E461446074901EBC501885D96
:1005600000F0A4F803E0207800F0B1F8641C2078D3
:100570000028F8DC70BD00005A0000201CB50121E5
:10058000602000F001F94FF44040009001208DF808
:10059000040000208DF8060003208DF805000120DE
:1005A0008DF8070069460F48FFF752FF02200090C0
:1005B00001208DF8040000208DF8060003208DF83E
:1005C000050001208DF8070069460748FFF740FF46
:1005D0000120064908600649C1F8BC0205490860C7
:1005E0001CBD000000140240001802408402434277
:1005F00000804242B882424210B5322000F044FDF1
:10060000302000F053F8012000F03EFD302000F0D3
:100610004DF8012000F038FD0C2000F047F80120D3
:1006200000F032FD012000F041F81E2000F02CFD0A
:10063000062000F03BF810BD1CB50121482000F059
:10064000A3F840F60C60009001208DF80400002013
:100650008DF8060003208DF8050001208DF80700B5
:1006600069461048FFF7F4FE40F68C610D48FFF72D
:1006700063FF4FF44250009001208DF804000020E9
:100680008DF8060003208DF8050001208DF8070085
:1006900069460548FFF7DCFE4FF442510248FFF778
:1006A0004BFF1CBD00180240000C024010B5044670
:1006B000012000F0E9FCF82000F00CF904F0F00053
:1006C00000F008F92107080E00F004F910BD10B57C
:1006D0000446012000F0D8FCFA2000F0FBF804F0FA
:1006E000F00000F0F7F82107080E00F0F3F810BD55
:1006F00000BFFEE77047000070B5002100230F2205
:10070000C4781CB3174C246804F4E064C4F5E064B6
:10071000C4F30721C1F10404E3B20A4144789C40C8
:10072000E1B28478144021430C07210E0E4C057869
:100730006155047804F01F050124AC4005786D1163
:10074000AD0005F1E025C5F8004109E0047804F0AA
:100750001F050124AC40054D0678761145F826406A
:1007600070BD00000CED00E000E400E080E100E07E
:1007700002490143024A1160704700000000FA0577
:100780000CED00E07047000029B1064A12680243F0
:10079000044B1A6004E0034A12688243014B1A605A
:1007A000704700003038024029B1064A12680243FF
:1007B000044B1A6004E0034A12688243014B1A603A
:1007C000704700004038024029B1064A12680243CF
:1007D000044B1A6004E0034A12688243014B1A601A
:1007E0007047000044380240F0B500210022002488
:1007F000022500260223324F3F6807F00C0121B189
:10080000042905D0082937D105E02E4F076036E0CE
:100810002D4F076033E02A4F3F1F3F68C7F38056D4
:10082000274F3F1F3F6807F03F036EB1264FB7FBCE
:10083000F3F7DFF88CC0ACF1040CDCF800C0CCF3AB
:10084000881C07FB0CF40CE01E4FB7FBF3F7DFF836
:1008500070C0ACF1040CDCF800C0CCF3881C07FBC2
:100860000CF4174F3F1F3F68C7F301477F1C7D0003
:10087000B4FBF5F7076002E0124F076000BF00BF4E
:100880000F4F3F6807F0F0010909104F7A5C0768C5
:10089000D74047600A4F3F6807F4E051890A0B4F81
:1008A0007A5C4768D7408760054F3F6807F460412E
:1008B000490B064F7A5C4768D740C760F0BD00001F
:1008C000083802400024F40000127A00440000209E
:1008D0007047000070B50546002418E005FA04F0E2
:1008E00000F0800018B101200A49086002E00020F1
:1008F0000849086000200749091F0860052000F02A
:10090000DFFB01200449C1F8B802601CC4B2082C06
:10091000E4DB70BDBC824242008042420CB5002044
:10092000019000903448006840F4803032490860FB
:1009300000BF3148006800F4003000900198401C6E
:100940000190009818B90198B0F5A04FF1D12A484C
:10095000006800F4003010B10120009001E0002098
:1009600000900098012846D123484030006840F0AC
:1009700080502149403108602048006840F44040E0
:100980001E4908601C48083000681B49083108608F
:100990000846006840F4004008600846006840F4DB
:1009A000A05008601648091F0860081F006840F042
:1009B0008070091F086000BF0F48006800F00070D9
:1009C0000028F9D040F205700E4908600A48083046
:1009D000006820F0030008490831086008460068F4
:1009E00040F00200086000BF03480830006800F0D3
:1009F0000C000828F8D10CBD0038024000700040FF
:100A000008544007003C0240042808D14FF0E02180
:100A1000096941F004014FF0E022116107E04FF055
:100A2000E021096921F004014FF0E02211617047D3
:100A30007047000010B51548006840F47000134975
:100A400008601348006840F0010011490860002068
:100A50000F49083108600E4800680E4908400C49EB
:100A600008600D48091D0860081F006820F48020F8
:100A7000091F0860002006490C310860FFF74EFF8F
:100A80004FF0006001498039086010BD88ED00E03A
:100A900000380240FFFFF6FE1030002410B501219F
:100AA000234800F060F9002841D02248007808BBB4
:100AB00001212148FFF737FD48B920480078401C44
:100AC000032190FBF1F201FB12001C490870022186
:100AD0001948FFF728FD48B919480078401C032140
:100AE00090FBF1F201FB120015490870012110483A
:100AF00000F02AF901211048FFF715FD20B102216D
:100B00000D48FFF710FD18B901200A4908700EE0E2
:100B100001210948FFF707FD012808D102210648F5
:100B2000FFF701FD012802D100200249087010BD25
:100B30000004004057000020001002405500002033
:100B4000560000207FB505460C4601210220FFF724
:100B50002BFE0295ADF804400020ADF80600ADF87C
:100B60000C0001A90D4800F019F9012211460B48AB
:100B700000F00AF91D208DF8000001208DF8010019
:100B800003208DF8020001208DF803006846FFF76E
:100B9000B3FD0121014800F0DAF87FBD00040040F8
:100BA00010B50121484800F0DEF800287CD0474805
:100BB0000078642828D1002044490870444800780F
:100BC00001280ED14348017843480078401C08446E
:100BD0004049087008460078642802DB00203C4940
:100BE00008703B480078A0B93A4801783A48007844
:100BF000401C081A3749087008460078002808DCAD
:100C000001203349087004E030480078401C2F4927
:100C100008703248007820B101281BD002284DD13D
:100C200032E02A4800782B490978884209DA002006
:100C30002B4908602B49C1F8A40201202A49086009
:100C400007E00020264908602649C1F8A402264989
:100C5000086033E01D4800781E49097888420ADAA6
:100C600000201F49086001201E49C1F8A40200208D
:100C70001D49086007E00020194908601949C1F8BA
:100C8000A4021949086019E0104800781149097850
:100C900088420ADA01201249086000201149C1F88F
:100CA000A4021149086008E009E000200C4908602E
:100CB0000C49C1F8A4020C49086000BF00BF012123
:100CC000014800F041F810BD000800405800002025
:100CD000590000205400002056000020550000203C
:100CE000A8024342000043429C8241427FB5054630
:100CF0000C4601210420FFF757FD0295ADF8044092
:100D00000020ADF80600ADF80C0001A90D4800F078
:100D100045F8012211460B4800F036F81E208DF8E8
:100D2000000001208DF8010003208DF80200012051
:100D30008DF803006846FFF7DFFC0121014800F051
:100D400006F87FBD00080040CA430282704721B107
:100D5000028842F00102028004E002884FF6FE732E
:100D60001A400280704730B502460020002300245C
:100D7000158A05EA0103958905EA010413B10CB14E
:100D8000012000E0002030BD1AB183890B4383812C
:100D900002E083898B438381704700000022028830
:100DA000184B98420ED0184B98420BD0B0F1804FA0
:100DB00008D0164B984205D0154B984202D0154BDF
:100DC000984204D14FF68F731A404B881A43124B46
:100DD000984207D0114B984204D04FF6FF431A4077
:100DE0000B891A4302804B68C3620B880385054B4D
:100DF000984202D0044B984201D18B7A038601239A
:100E0000838270470000014000040140000400405C
:100E100000080040000C004000100040001400409A
:100E200010B540F225510E4800F048F8B8B10C4812
:100E300000F0FEF8C4B20B480B49098844540A4834
:100E40000088401C0849088008460088C72801DD42
:100E50000020088040F22551014800F007F810BD3D
:100E6000001001407C0000204200002010B500224C
:100E7000002340F66A14A14200D100BF0A120124E7
:100E80009440A3B2DC43048010BD21B1828942F4B6
:100E90000052828104E082894DF6FF731A408281FC
:100EA000704702460020B1F5007F00D100BF1388D3
:100EB0000B400BB1012000E00020704770B50246E6
:100EC000002400230025002040F66A16B14200D11C
:100ED00000BFC1F3421501F01F03012606FA03F318
:100EE000012D02D19689334006E0022D02D1168AE7
:100EF000334001E0968A33400C12012606FA04F4CE
:100F00001688344013B10CB1012000E0002070BD00
:100F1000F0B50346002400260025002040F66A179D
:100F2000B94200D100BF1846C1F3421401F01F06B8
:100F3000012707FA06F5012C01D10C3004E0022C40
:100F400001D1103000E014301AB107682F43076058
:100F500002E00768AF430760F0BD00002DE9FF47DE
:100F600005460E460024A14600BFA046B08900B148
:100F700000BF2C8A24F44054F08804432C82AC89AE
:100F800041F20C608443B088318908437189084379
:100F90000443AC81AC8A24F44074B0890443AC822D
:100FA0006846FFF721FC2048854202D01F48854251
:100FB00002D1DDF80C9001E0DDF80890A88900F47A
:100FC000004040B109EBC90000EB0910316849004D
:100FD000B0FBF1F707E009EBC90000EB091031683D
:100FE0008900B0FBF1F76420B7FBF0F004012009A1
:100FF000642101FB1078A88900F4004040B1322040
:1010000000EBC800B0FBF1F000F00700044308E07B
:10101000322000EB08106421B0FBF1F000F00F006B
:1010200004432C81BDE8FF870010014000140140FB
:1010300001468888C0F308007047C1F30802828027
:10104000704700BFFEE7014600BF704710B5044679
:101050006FF00400FFF7D8FCE11704EB5171C1F306
:10106000C701074A11701046007800EB4001C1EB40
:10107000C0104FF6FF7101EAC0000249088010BDA0
:10108000380000203A00002070B504464FF4077085
:1010900094FBF0F0C6B24FF4077094FBF0F100FB44
:1010A000114085B205E04FF4077000F02FF8701E74
:1010B000C6B2002EF7D115B1284600F027F870BD52
:1010C0000146114A12784A434FF0E0235A61002248
:1010D0009A611A46126942F001021A6100BF4FF08C
:1010E000E022106900F001021AB100F48032002AF7
:1010F000F5D04FF0E022126922F001024FF0E02318
:101100001A6100229A617047380000200146114A96
:1011100012884A434FF0E0235A6100229A611A462E
:10112000126942F001021A6100BF4FF0E02210691B
:1011300000F001021AB100F48032002AF5D04FF01D
:10114000E022126922F001024FF0E0231A6100222E
:101150009A6170473A0000201FB568A103C9CDE924
:10116000020168A103C9CDE900016848FFF7A1F8B1
:10117000674908604FF4A060FFF7FAFAA820FFF76C
:1011800065FFFFF7FBF9FFF737FAFFF7D9F94FF4DF
:10119000E13000F0CBF8FFF74FFA47214CF24F3027
:1011A000FFF7D0FC47216320FFF7A0FDFFF7D6F83B
:1011B000A3E04FF4FA60FFF767FF10215548FFF7EF
:1011C000B2F9012838D120215248FFF7ACF990BB81
:1011D00000205149486008460068002811DA0020C4
:1011E000086002A94948FFF740F84848FFF761F84E
:1011F0004749086001204949088000204849088083
:1012000057E04548406844490968884251D002A9DE
:101210003E48FFF72AF83D48FFF74BF83C49086085
:1012200001203E4908803C4840683B490860002056
:101230003B4908803DE0FFE720213648FFF773F97E
:10124000012836D110213348FFF76DF988BB012002
:101250003149486008460068002811DA012008601A
:1012600069462A48FFF701F82848FFF722F828497D
:10127000086001202949088000202949088018E0D9
:101280002548406824490968884212D069461F48A9
:10129000FEF7EBFF1D48FFF70CF81D490860012021
:1012A0001E4908801C4840681B49086000201C49F2
:1012B00008801A480088A8B100240CE01348015D9A
:1012C0001848FFF7BAFE00BF80211648FFF7E9FD76
:1012D0000128F9D1641C0E4800688442EEDB00202E
:1012E0000E4908800E48008809490968884204D1DF
:1012F0000D4A00210846FFF72BF95AE744495030C0
:10130000210000004449503121000000200000204D
:101310002800002000100240300000204000002083
:1013200042000020001001407C00002010B588B071
:10133000044601210846FFF727FA01211020FFF794
:1013400043FA072209212848FFF7CAF807220A2191
:101350002548FFF7C5F84FF40070069002208DF87D
:101360001C008DF81D0000208DF81E0006A91E48E7
:10137000FFF76EF84FF48060069002208DF81C0095
:101380008DF81D0001208DF81F0006A91648FFF7F3
:101390005FF802940020ADF80C00ADF80E00ADF837
:1013A0001000ADF814000C20ADF8120002A90F488F
:1013B000FFF7D4FD012240F225510C48FFF7A8FDAC
:1013C00025208DF8040001208DF805008DF8060019
:1013D0008DF8070001A8FFF78FF901210348FFF7F7
:1013E00054FD08B010BD0000000002400010014094
:1013F0004FF04070E1EE100A704700001C14000826
:10140000000000207C000000C401000898140008BF
:101410007C0000202C070000E0010008808182830E
:1014200084858687909192939495969788898A8BE4
:101430008C8D8E8F98999A9B9C9D9E9F48656C6C15
:101440006F2173000000000000000000FFFFFFFF9D
:10145000FFFFFFFF0000000000000000010000008F
:10146000000000000102030401020304060708094A
:10147000000000000001808182838485868790912E
:1014800092939495969788898A8B8C8D8E8F989954
:081490009A9B9C9D9E9F0000A9
:040000050800018965
:00000001FF
