:020000040800F2
:100000006807002029020008A10500086B04000809
:100010009D05000811030008D30B00080000000034
:100020000000000000000000000000005D07000864
:10003000150300080000000031060008BD08000894
:10004000430200084302000843020008430200087C
:100050004302000843020008190300084302000895
:100060004302000845030008430200084302000859
:10007000430200084302000843020008430200084C
:10008000430200084302000843020008430200083C
:10009000430200084302000843020008430200082C
:1000A000430200084302000843020008430200081C
:1000B000430200082909000843020008430200081F
:1000C00043020008430200084302000843020008FC
:1000D00043020008B1090008430200084302000877
:1000E00043020008430200084302000843020008DC
:1000F00043020008430200084302000843020008CC
:1001000043020008430200084302000843020008BB
:1001100043020008430200084302000843020008AB
:10012000430200084302000843020008430200089B
:10013000430200084302000843020008430200088B
:10014000430200084302000843020008430200087B
:10015000430200084302000843020008430200086B
:10016000430200084302000843020008430200085B
:10017000430200084302000843020008430200084B
:10018000430200084302000800F002F800F03CF8C7
:100190000AA090E8000C82448344AAF10107DA45E2
:1001A00001D100F031F8AFF2090EBAE80F0013F0F8
:1001B000010F18BFFB1A43F001031847900C000011
:1001C000B00C0000103A24BF78C878C1FAD85207A2
:1001D00024BF30C830C144BF04680C6070470000C1
:1001E0000023002400250026103A28BF78C1FBD840
:1001F000520728BF30C148BF0B6070471FB500F0E1
:100200001FFE1FBD10B510BD00F052F81146FFF7DC
:10021000F5FF00F069FD00F070F803B4FFF7F2FF9E
:1002200003BC00F0D8FC000009488047094800479B
:10023000FEE7FEE7FEE7FEE7FEE7FEE7FEE7FEE796
:10024000FEE7FEE704480549054A064B70470000F3
:10025000C108000889010008680100206807002023
:100260006803002068030020704710B5431C02E0BB
:1002700010F8011B71B18107FAD14FF0013202C8A9
:100280008C1A8C4314EAC211F9D0C01A0A0603D0A2
:10029000C01E10BDC01A10BD0A0401D0801E10BDC2
:1002A0000902FCD0401E10BD704770477047704770
:1002B000754600F029F8AE4605006946534620F021
:1002C0000700854618B020B5FFF7BCFFBDE8204009
:1002D0004FF000064FF000074FF000084FF0000B02
:1002E00021F00701AC46ACE8C009ACE8C009ACE8B5
:1002F000C009ACE8C0098D4670470446AFF30080E2
:100300002046FFF78AFF00000048704708010020E0
:1003100000BFFEE77047000010B5012000F02EF886
:1003200068B1642000F078FC0548006808B9012035
:1003300000E0002002490860012000F019F810BD1B
:10034000AC02434210B5082000F018F868B16420F0
:1003500000F062FC0548006808B9012000E00020B8
:1003600002490860082000F003F810BDB082414245
:100370000149086070470000143C0140014600201C
:10038000034A12680A400AB1012000E000207047C9
:10039000143C0140F0B50A4600210023002400BFB0
:1003A0003DE0012505FA01F3156805EA03049C42C6
:1003B00034D105684F000326BE40B543056015796A
:1003C0004E00B5400668354305601579012D02D011
:1003D0001579022D16D185684F000326BE40B5431E
:1003E000856055794E00B54086683543856045681F
:1003F00001268E40B5434560456896798E40B6B279
:1004000035434560C5684F000326BE40B543C5600F
:10041000D5794E00B540C6683543C560491C1029E2
:10042000BFD3F0BDF0B5002300244D07ED0E02FA56
:1004300005F3CE1000F1200555F826504E07F70EB3
:100440000F26BE40B543CF1000F1200646F82750D6
:10045000CE1000F1200555F8265045EA0304CE10D1
:1004600000F1200545F82640F0BD00BFFEE7000082
:1004700070B505460E461446074901EBC501885D77
:1004800000F06AF803E0207800F077F8641C207828
:100490000028F8DC70BD00001D0000201CB5012103
:1004A000602000F0C7F84FF44040009001208DF824
:1004B000040000208DF8060003208DF805000120BF
:1004C0008DF8070069460F48FFF764FF022000908F
:1004D00001208DF8040000208DF8060003208DF81F
:1004E000050001208DF8070069460748FFF752FF15
:1004F0000120064908600649C1F8BC0205490860A8
:100500001CBD000000140240001802408402434257
:1005100000804242B882424210B5322000F07CFB9B
:10052000302000F019F8012000F076FB302000F0B8
:1005300013F8012000F070FB0C2000F00DF80120F2
:1005400000F06AFB012000F007F81E2000F064FBB9
:10055000062000F001F810BD10B50446012000F09F
:100560005BFBF82000F0FCF804F0F00000F0F8F875
:100570002107080E00F0F4F810BD10B50446012064
:1005800000F04AFBFA2000F0EBF804F0F00000F075
:10059000E7F82107080E00F0E3F810BD00BFFEE702
:1005A0007047000070B5002100230F22C4781CB3EF
:1005B000174C246804F4E064C4F5E064C4F3072134
:1005C000C1F10404E3B20A4144789C40E1B284786A
:1005D000144021430C07210E0E4C05786155047818
:1005E00004F01F050124AC4005786D11AD0005F144
:1005F000E025C5F8004109E0047804F01F05012456
:10060000AC40054D0678761145F8264070BD0000D7
:100610000CED00E000E400E080E100E0024901436D
:10062000024A1160704700000000FA050CED00E07E
:100630007047000029B1064A12680243044B1A6051
:1006400004E0034A12688243014B1A6070470000BD
:100650003038024029B1064A12680243044B1A603E
:1006600004E0034A12688243014B1A60704700009D
:1006700044380240F0B50021002200240225002663
:100680000223324F3F6807F00C0121B1042905D045
:10069000082937D105E02E4F076036E02D4F07605F
:1006A00033E02A4F3F1F3F68C7F38056274F3F1F55
:1006B0003F6807F03F036EB1264FB7FBF3F7DFF853
:1006C0008CC0ACF1040CDCF800C0CCF3881C07FB38
:1006D0000CF40CE01E4FB7FBF3F7DFF870C0ACF181
:1006E000040CDCF800C0CCF3881C07FB0CF4174F9B
:1006F0003F1F3F68C7F301477F1C7D00B4FBF5F740
:10070000076002E0124F076000BF00BF0F4F3F6855
:1007100007F0F0010909104F7A5C0768D74047607D
:100720000A4F3F6807F4E051890A0B4F7A5C47682B
:10073000D7408760054F3F6807F46041490B064F7B
:100740007A5C4768D740C760F0BD000008380240B7
:100750000024F40000127A000C0000207047000012
:1007600070B50546002418E005FA04F000F080009A
:1007700018B101200A49086002E000200849086019
:1007800000200749091F0860052000F061FA0120D8
:100790000449C1F8B802601CC4B2082CE4DB70BD87
:1007A000BC824242008042420CB500200190009081
:1007B0003448006840F480303249086000BF314856
:1007C000006800F4003000900198401C01900098EF
:1007D00018B90198B0F5A04FF1D12A48006800F48B
:1007E000003010B10120009001E00020009000983E
:1007F000012846D123484030006840F0805021490C
:10080000403108602048006840F440401E490860BC
:100810001C48083000681B49083108600846006819
:1008200040F4004008600846006840F4A0500860AA
:100830001648091F0860081F006840F08070091FF3
:10084000086000BF0F48006800F000700028F9D071
:1008500040F205700E4908600A480830006820F030
:1008600003000849083108600846006840F00200AB
:10087000086000BF03480830006800F00C0008283A
:10088000F8D10CBD00380240007000400854400709
:10089000003C0240042808D14FF0E021096941F0F2
:1008A00004014FF0E022116107E04FF0E0210969F7
:1008B00021F004014FF0E022116170477047000001
:1008C00010B51548006840F47000134908601348DB
:1008D000006840F001001149086000200F4908310C
:1008E00008600E4800680E4908400C4908600D4831
:1008F000091D0860081F006820F48020091F086097
:10090000002006490C310860FFF74EFF4FF00060F1
:1009100001498039086010BD88ED00E000380240D0
:10092000FFFFF6FE1030002410B50121134800F03F
:100930002EF8E8B11248006808B9012000E0002054
:100940000F4908600F480078401C0E49087008469F
:1009500000780A280CD10A48001D006808B9012057
:1009600000E000200649091D0860002005490870C4
:100970000121024800F008F810BD0000000400400A
:10098000A80243421C000020CA430282704730B5CF
:100990000246002000230024158A05EA01039589F8
:1009A00005EA010413B10CB1012000E0002030BDC4
:1009B00010B540F225510E4800F048F8B8B10C4887
:1009C00000F0FEF8C4B20B480B49098844540A48A9
:1009D0000088401C0849088008460088C72801DDB7
:1009E0000020088040F22551014800F007F810BDB2
:1009F00000100140400000200A00002010B5002235
:100A0000002340F66A14A14200D100BF0A1201245B
:100A10009440A3B2DC43048010BD21B1828942F42A
:100A20000052828104E082894DF6FF731A40828170
:100A3000704702460020B1F5007F00D100BF138847
:100A40000B400BB1012000E00020704770B502465A
:100A5000002400230025002040F66A16B14200D190
:100A600000BFC1F3421501F01F03012606FA03F38C
:100A7000012D02D19689334006E0022D02D1168A5B
:100A8000334001E0968A33400C12012606FA04F442
:100A90001688344013B10CB1012000E0002070BD75
:100AA000F0B50346002400260025002040F66A1712
:100AB000B94200D100BF1846C1F3421401F01F062D
:100AC000012707FA06F5012C01D10C3004E0022CB5
:100AD00001D1103000E014301AB107682F430760CD
:100AE00002E00768AF430760F0BD00002DE9FF4753
:100AF00005460E460024A14600BFA046B08900B1BD
:100B000000BF2C8A24F44054F08804432C82AC8922
:100B100041F20C608443B0883189084371890843ED
:100B20000443AC81AC8A24F44074B0890443AC82A1
:100B30006846FFF79FFD2048854202D01F48854246
:100B400002D1DDF80C9001E0DDF80890A88900F4EE
:100B5000004040B109EBC90000EB091031684900C1
:100B6000B0FBF1F707E009EBC90000EB09103168B1
:100B70008900B0FBF1F76420B7FBF0F00401200915
:100B8000642101FB1078A88900F4004040B13220B4
:100B900000EBC800B0FBF1F000F00700044308E0F0
:100BA000322000EB08106421B0FBF1F000F00F00E0
:100BB00004432C81BDE8FF87001001400014014070
:100BC00001468888C0F308007047C1F3080282809C
:100BD000704700BFFEE7014600BF704710B50446EE
:100BE0006FF00400FFF756FEE11704EB5171C1F3FB
:100BF000C701074A11701046007800EB4001C1EBB5
:100C0000C0104FF6FF7101EAC0000249088010BD14
:100C1000000000200200002070B504464FF4077069
:100C200094FBF0F0C6B24FF4077094FBF0F100FBB8
:100C3000114085B205E04FF4077000F02FF8701EE8
:100C4000C6B2002EF7D115B1284600F027F870BDC6
:100C50000146114A12784A434FF0E0235A610022BC
:100C60009A611A46126942F001021A6100BF4FF000
:100C7000E022106900F001021AB100F48032002A6B
:100C8000F5D04FF0E022126922F001024FF0E0238C
:100C90001A6100229A617047000000200146114A43
:100CA00012884A434FF0E0235A6100229A611A46A3
:100CB000126942F001021A6100BF4FF0E022106990
:100CC00000F001021AB100F48032002AF5D04FF092
:100CD000E022126922F001024FF0E0231A610022A3
:100CE0009A617047020000201CB51EA103C9CDE91E
:100CF00000016846FFF7B9FA05464FF4A060FFF718
:100D00008DFCA820FFF76AFFFFF7C8FBFFF704FC84
:100D10004FF4E13000F032F823E04FF4FA60FFF7CF
:100D20007BFF1248008898B100240CE01DF80410E5
:100D30000F48FFF74AFF00BF80210D48FFF779FEFB
:100D40000128F9D1641CAC42F0DB0020074908807F
:100D500008480088A84204D1074A00210846FFF746
:100D600087FBDAE748656C6C6F2100000800002003
:100D7000001001400A0000204000002010B588B09B
:100D8000044601210846FFF755FC01211020FFF71A
:100D900061FC072209212848FFF744FB07220A21AA
:100DA0002548FFF73FFB4FF40070069002208DF8B6
:100DB0001C008DF81D0000208DF81E0006A91E489D
:100DC000FFF7E8FA4FF48060069002208DF81C00CF
:100DD0008DF81D0001208DF81F0006A91648FFF7A9
:100DE000D9FA02940020ADF80C00ADF80E00ADF871
:100DF0001000ADF814000C20ADF8120002A90F4845
:100E0000FFF774FE012240F225510C48FFF748FE1F
:100E100025208DF8040001208DF805008DF80600CE
:100E20008DF8070001A8FFF7BDFB01210348FFF77C
:100E3000F4FD08B010BD00000000024000100140A9
:100E40004FF04070E1EE100A704700006C0E000891
:100E50000000002040000000C4010008AC0E0008A3
:100E60004000002028070000E0010008000000000A
:100E70000000000001000000000000000102030467
:100E800001020304060708090080818283848586A5
:100E900087909192939495969788898A8B8C8D8E62
:0C0EA0008F98999A9B9C9D9E9F000000DB
:040000050800018965
:00000001FF
